:020000040800F2
:10000000E8050124B1020008534D00083D4B0008EB
:10001000514D0008B10A0008D15800080000000046
:10002000000000000000000000000000994F0008E0
:10003000F90E000800000000554D00089B4F000815
:10004000CB020008CB020008CB020008CB0200085C
:10005000CB020008CB020008CB020008CB0200084C
:10006000CB020008CB020008CB020008B50A00084A
:10007000CB020008CB020008CB020008CB0200082C
:10008000CB020008CB020008A50A0008CB0200083A
:10009000CB020008CB020008CB020008CB0200080C
:1000A000CB020008CB020008CB020008CB020008FC
:1000B000CB020008CB020008CB020008CB020008EC
:1000C000CB020008CB020008CB020008CB020008DC
:1000D000CB020008CB020008CB020008CB020008CC
:1000E000CB020008CB02000800000000CB02000891
:1000F000CB020008CB020008CB020008CB020008AC
:10010000CB020008CB020008CB020008CB0200089B
:10011000CB020008CB020008CB020008CB0200088B
:10012000CB020008CB020008CB020008CB0200087B
:10013000CB020008CB020008CB020008CB0200086B
:1001400000000000000000000000000000000000AF
:10015000CB020008CB020008CB020008CB0200084B
:10016000CB020008CB020008CB020008CB0200083B
:10017000CB020008CB020008CB020008CB0200082B
:10018000CB020008CB020008CB020008CB0200081B
:10019000CB020008CB020008CB020008CB0200080B
:1001A000CB020008CB020008CB020008CB020008FB
:1001B000CB020008CB020008CB020008CB020008EB
:1001C000CB020008CB020008CB020008CB020008DB
:1001D000CB020008CB020008CB020008CB020008CB
:1001E000CB020008CB020008CB020008CB020008BB
:1001F000CB020008CB020008CB020008CB020008AB
:10020000CB020008CB020008CB020008CB0200089A
:10021000CB020008CB020008CB020008CB0200088A
:10022000CB020008CB020008CB020008000000004F
:10023000CB020008CB02000800000000CB0200083F
:10024000CB020008CB020008CB020008CB0200085A
:10025000CB020008CB020008CB020008CB0200084A
:10026000CB020008CB020008CB020008CB0200083A
:10027000CB020008CB020008CB02000800000000FF
:10028000CB020008CB020008CB02000800000000EF
:1002900000000000CB020008DFF810D000F074FA74
:1002A0000048004779790008AFF30080E805012491
:1002B0000648804706480047FEE7FEE7FEE7FEE700
:1002C000FEE7FEE7FEE7FEE7FEE7FEE77D500008FB
:1002D000990200082DE9F05F0546002092469B46F2
:1002E00088460646814640241BE02846414647464C
:1002F000224600F069F853465A46C01A914110D37D
:1003000011461846224600F016F82D1A67EB010830
:100310004F4622460120002100F00DF817EB00099E
:100320004E41201EA4F10104DFDC484631462A4636
:100330004346BDE8F09F202A04DB203A00FA02F190
:10034000002070479140C2F1200320FA03F31943C3
:1003500090407047202A06DBCB17203A41FA02F082
:1003600043EAE07306E041FA02F3D040C2F1200212
:100370009140084319467047D2B201E000F8012BC2
:10038000491EFBD270470022F6E710B513460A4615
:1003900004461946FFF7F0FF204610BD30B50B4666
:1003A000014600202022012409E021FA02F59D42A5
:1003B00005D303FA02F5491B04FA02F52844151E79
:1003C000A2F10102F1DC30BD202A04DB203A21FA3F
:1003D00002F00021704721FA02F3D040C2F120025E
:1003E00091400843194670472DE9FE4F804681EA47
:1003F0000300C00F0C46009021F0004123F000459F
:10040000B8EB0200A94105D24046214690461C4661
:100410000B46024623F00040104347D0270DC7F398
:100420000A00C3F30A510290401A019040286BDA87
:10043000C3F3130040F4801B0098924620B10023C0
:10044000D2EB030A63EB0B0B01985946C0F1400253
:100450005046FFF770FF06460D4650465946019A32
:10046000FFF778FF10EB08006141002487EA115282
:1004700084EAE7731A4340D0009A62B3019A012AD2
:100480004FEA075215DC001B61EB02014FF00042FE
:1004900002EA0752CDE90042001C41F580113246C4
:1004A0002B4600F092F903B0BDE8F08F404621469C
:1004B000F9E7001B61EB0201001C41F580130018F5
:1004C0005B412018A2F5001747EB030140EAD57005
:1004D000B6196D4111E06D084FEA360645EAC07560
:1004E0004FEA0752001B61EB0201001C41F580112D
:1004F00049084FEA30000019514132462B4603B0FB
:10050000BDE8F04F00F052B90098012240000023EE
:10051000D0EB020263EBE073009821464FEAE074EF
:10052000B8EB000061EB0401E9E783F000435BE70F
:1005300081F0004158E72DE9FE4F81EA030404F001
:10054000004421F0004100944FF0000B23F00043E1
:1005500050EA01045ED052EA03045BD0C3F30A54AC
:10056000C1F30A552C44A4F2F3340194A0FB0254C5
:10057000C1F3130141F48011C3F3130343F4801357
:1005800001FB024400FB034E840A970A44EA8154AB
:1005900047EA8357A4FB076802958D0A05FB078588
:1005A0004FEA932C04FB0C542705029D4FEA065892
:1005B00047EA1637B5EB08056EEB070C870E920E6F
:1005C00047EA811742EA8312A7FB0201B6EB0B014F
:1005D00064EB00042B0D43EA0C335E1844EB1C5013
:1005E000DA465146E7FB0201C5F313044FEA0B3329
:1005F00043EA14534FEA0432019C43EA0603A4F190
:100600000C040294009CCDE900B400F0DEF803B0C5
:10061000BDE8F08F00200146F9E72DE9F04D81EAB1
:10062000030404F0004B21F0004514464FF0000A8B
:1006300023F0004150EA050220D054EA01021DD007
:10064000C5F30A570246C5F31303C1F31300C1F300
:100650000A5640F4801543F48013A7EB0608101BDC
:10066000D64608F2FD3873EB050002D308F1010805
:1006700001E092185B41B8F1000F03DA0020014657
:10068000BDE8F08D00204FF48011064684460EE050
:10069000171B73EB050705D3121B63EB050306431A
:1006A0004CEA010C49084FEA300092185B4150EACD
:1006B0000107EDD152EA030012D082EA040083EA76
:1006C0000501084305D0101BAB4106D201220023CF
:1006D00006E000224FF0004302E06FF001025310E9
:1006E0001AEB06004CEB085110EB0A0041EB0B0132
:1006F000BDE8F04D00F05AB870B521F00043034357
:100700000CD0C1F30A550024D5EB040564EB0403B7
:10071000D617AD1AB34102DB0020014670BD201888
:1007200041EB025170BDC1F30A52C1F3130140F213
:10073000FF3341F480119A4202DA002001467047EB
:1007400040F233439A42A2F2334202DC5242FFF7B4
:100750003BBEFFF7F0BD000030B5041E71F1000490
:1007600004DB4FF00044404264EB0101141E73F1BE
:10077000000405DB1C464FF00043524263EB0403C8
:10078000994208BF904230BD064C074D06E0E06834
:1007900040F0010394E8070098471034AC42F6D3C8
:1007A000FFF77EFD681B0108881B010810B5141EA9
:1007B00073F1000408DA401C41F1000192185B411A
:1007C0001A4301D120F0010010BD2DE9F04D9246F1
:1007D0009B4611B1B1FA81F202E0B0FA80F2203208
:1007E0009046FFF7A8FD04460F4640EA0A0041EA9A
:1007F0000B0153465A46084313D0114653EA0100F1
:1008000019D0C8F140025046FFF7DEFD05460E46FE
:10081000504659464246FFF78EFD084305D0012059
:1008200004E020463946BDE8F08D0020054346EA45
:10083000E0762C4337430A986305E40AA0EB0800EE
:100840000022FD0A44EA47540A3002D5002001463E
:10085000E9E7010510196941DDE908450019694119
:10086000BDE8F04DA2E7000070B53A4905460068C2
:10087000884202D0384A904202D1D1F8080302E0FF
:100880003648D0F8080310F4403F11D003F00CFBB9
:1008900004466868B0F5803F06D0B0F5003F03D04D
:1008A000B0F5403F27D101E0000C18E0A40822E099
:1008B00000214FF4002002F08FFB0446686881039A
:1008C000890B18D181140C2915D2DFE801F0140628
:1008D00006060606060B0D0F1113800C4000B4FB34
:1008E000F0F408E0240906E0640904E0A40902E049
:1008F000E40900E0240A02F09BF841F20301884277
:1009000008D8174884422868816813D821F4807178
:10091000816070BD13496008884204D828688168E6
:1009200021F44071F4E71049884206D828688168AC
:1009300021F4407141F48071EAE70C49884228684B
:10094000816804D821F4407141F40071E0E741F47A
:100950004071DDE7002002400021024000600258A3
:10096000002D3101105E5F0020BCBE0040787D018B
:1009700010B5846B616D11F0500F06D0616DC90622
:1009800025D5204600F047FD10BD606D40F4007095
:10099000606520680168090707D504F0DCF890B1AC
:1009A0002068C068800403D50DE0C06880070AD1C4
:1009B000606D20F480706065606DC00403D4606D6C
:1009C00040F001006065204600F01EFD10BDE16CA6
:1009D000C96CBDE81040084710B5806B416D41F00F
:1009E00040014165816D41F00401816500F013FD16
:1009F00010BD10B5806B00F00DFD10BD70B5044644
:100A00000068816811F0010F40D18168204A1142CD
:100A10002DD18168D5432940491C816002F00EF830
:100A20001C49064620681C4B884201D0984201D1DF
:100A30001A4A00E01A4A9268984202F01F0200D057
:100A4000014681421DD0E2B120E0816811F0010F22
:100A500003D181682940491C816001F0EFFF801BB0
:100A600002280ED920680068C043C00709D0606D15
:100A700040F010006065A06D40F00100A06501200D
:100A800070BD20680168C943C907DED1002070BD70
:100A90003F0000800020024000210240002302406D
:100AA00000630258014800F0B7BC00002C0001248C
:100AB000FEE70000014801F001B8000090000124A9
:100AC000294A016891423AD0274A1832914236D0D9
:100AD000254A3032914232D0234A483291422ED0B8
:100AE000214A603291422AD01F4A7832914226D060
:100AF0001D4A9032914222D01B4AA83291421ED008
:100B00001A4A91421BD0194A1832914217D0174AFB
:100B10003032914213D0154A483291420FD0134AD5
:100B2000603291420BD0114A7832914207D00F4A7D
:100B30009032914203D00D4AA832914211D1CAB2EB
:100B40001823103AB2FBF3F26FF30901032A02F003
:100B50000703074AD25CC26500D9091D81650846B2
:100B6000704721F0FF01F9E7100002401004024035
:100B7000067B000830B5224A012301689142CAB2BF
:100B80001BD01F4C1434A14217D01D4C2834A14255
:100B900013D01B4C3C34A1420FD0194C5034A1420D
:100BA0000BD0174C6434A14207D0154C7834A142C5
:100BB00003D0134C8C34A1420CD11421114C083AAF
:100BC000B2FBF1F10F4A803201F01F0504EB810105
:100BD000AB4010E00C4D1824103A0D44B2FBF4F178
:100BE000A82D00D80831094A01F01F0402EB810149
:100BF000064AA3408032603080E80E0030BD00001D
:100C00000854025800580258F0FBFDBF000802408B
:100C100010B50279531E072B2DD8174C0168A1423D
:100C20001BD0154C1434A14217D0134C2834A142C8
:100C300013D0114C3C34A1420FD00F4C5034A14280
:100C40000BD00D4C6434A14207D00B4C7834A14238
:100C500003D0094C8C34A14203D10849074C4431DC
:100C600002E00749064C443104EB8202C0E91B2133
:100C700001219940416710BD08540258FC580258A0
:100C8000FC08024010B583694FF0C074826A0146C7
:100C9000002053B1B3F5005F15D072B1012A0CD01A
:100CA000022A0AD0032A09D104E01AB1012A06D087
:100CB000022A03D1C96AC90100D5012010BDC96A41
:100CC000A142FAD010BD002AF7D0012AF2D0022AA0
:100CD000F3D0032AF3D010BD2DE9F04F804E804FA2
:100CE000DFF8FC911836DFF8F8A148370468856D05
:100CF0000AF1300ADFF8ECB14C45DFF8ECC1DFF85F
:100D0000ECE16DD0B4426BD0544569D0BC4267D0A1
:100D1000DFF8D081A8F11808444561D05C455FD068
:100D200064455DD074455BD0DFF8C481444557D03D
:100D3000DFF8BC8108F11808444551D0DFF8B081D4
:100D400008F1300844454BD0DFF8A48108F1480889
:100D5000444545D0DFF8988108F1600844453FD00C
:100D6000DFF88C8108F17808444539D0DFF88081BC
:100D700008F19008444533D0DFF8748108F1A808E1
:100D800044452DD0DFF86C81444529D0DFF86481DB
:100D900008F11408444523D0DFF8588108F12808E9
:100DA00044451DD0DFF84C8108F13C08444517D07C
:100DB000DFF8408108F15008444511D0DFF8348154
:100DC00008F1640844450BD0DFF8288108F1780861
:100DD000444505D0DFF81C8108F18C08444509D151
:100DE000D0E91948C4F80480C46E1CB1D0E91C488D
:100DF000C4F8048004684C452ED0B4422CD054452D
:100E00002AD0BC4228D0374E183EB44224D05C458C
:100E100022D0644520D074451ED0354EB4421BD03C
:100E2000334E1836B44217D0314E3036B44213D058
:100E30002F4E4836B4420FD02D4E6036B4420BD000
:100E40002B4E7836B44207D0294E9036B44203D0A8
:100E5000274EA836B44215D190F85C603F2406F0C6
:100E60001F06B440AC600468256825F48025256021
:100E70002EE09A600068C160BDE8F08F996000685C
:100E8000C260F9E71B4EB4421BD01A4E1436B4426E
:100E900017D0184E2836B44213D0164E3C36B44202
:100EA0000FD0144E5036B4420BD0124E6436B442BA
:100EB00007D0104E7836B44203D00E4E8C36B44272
:100EC000DAD190F85C60012406F01F06B4406C6033
:100ED000046863608368402B0368CFD1C9E70000D2
:100EE0001000024088000240A0000240B80002400A
:100EF0001004024008540258704772B6FEE770476B
:100F000070477047704770472DE9F0470F4690F8DB
:100F100050109AB0044601294FF0000915D0002660
:100F2000DFF8F880012084F85000159616962168A5
:100F300041450ED13A4D0095284603F008FE824601
:100F4000206803F004FE60B10EE002201AB0BDE894
:100F5000F087606D84F8506040F0200060650120EB
:100F6000F4E7BAF1000F09D0616D4FF0010941F0CB
:100F700020006065484684F85060E7E720684146F5
:100F8000884201D0A84201D1264800E0264840F618
:100F90001F72D7F800C0254BBCF1000F23D0D0F84A
:100FA00008C0D7F804802CF4404C4CEA080CC0F878
:100FB00008C0D4F800C08C4501D0AC4507D1896881
:100FC000AB6801F0010103F00103194302E09968E5
:100FD00001F001010029CDD1BD683968836829433A
:100FE0009343194317E0876827F4404787602768D1
:100FF0008F4201D0AF4207D18968AB6801F001018F
:1010000003F00103194302E0996801F0010100298E
:10101000B0D1816891438160ACE7000000200240BC
:101020000021024000230240006302580060025881
:101030002DE9F84F4FF0000B0446E54E0D46CDF874
:1010400000B05F4690F85000DFF888A3012808D070
:101050004FF0010984F85090206803F074FD18B136
:1010600069E10220BDE8F88F21682868CA69030396
:1010700028D090FAA0F0B0FA80F000BF00F01F0373
:1010800009FA03F00243CA61D5E900124FF00C0CD3
:1010900020681F23C1F384610CEA921C02F01F0236
:1010A000604493409140026B9A430A430263206874
:1010B00003F049FD8046206803F041FD58EA000036
:1010C00003D07FE0C0F38460D8E72068AA6829686D
:1010D00003F049FDC0490968B9EB117F06D12168C9
:1010E0006869C968C1F38201490008E02068C168E5
:1010F000C906C1686869F5D501F010014908884042
:10110000296904292ED022682B6802EB810103F0A3
:10111000F8420B6E024303F0004010430866697EFC
:1011200022682869012917D05FF0000102EB8000D6
:10113000026E22F000420A430266287E21682A6974
:1011400001280CD000200B6902F01F02904023F40C
:10115000F04202430A6135E04FF00041E6E74FF408
:101160000060F0E720682978026E02F0F842B2EBE6
:10117000816F03D1016E21F000410166206829785A
:10118000426E02F0F842B2EB816F03D1416E21F062
:101190000041416620682978826E02F0F842B2EB85
:1011A000816F03D1816E21F000418166206829782A
:1011B000C26E02F0F842B2EB816F03D1C16E21F032
:1011C0000041C1662068816811F0010F76D150F8A6
:1011D000C02F95F80CC0814B29680CF0180C23FA2D
:1011E0000CF3C1F313080B4022EA08021A43026011
:1011F0007B48E968814277D1286801031BD090FAC7
:10120000A0F1B1FA81F1491C01F01F0109294FEA4F
:10121000003131D8002911D090FAA0F1B1FA81F152
:1012200001F1010101F01F0109FA01F209D100BF2A
:10123000C0F3846109E0C0F38461E4E7C0F3846132
:10124000EEE790FAA0F1B1FA81F101F1010101F0AC
:101250001F0142EA816102D1C0F3846003E090FA89
:10126000A0F0B0FA80F000F1010000F01F0000EBE8
:10127000400041EA005133E000290ED090FAA0F17D
:10128000B1FA81F101F1010101F01F0109FA01F246
:1012900006D100BFC0F3846106E0C0F38461F1E7CA
:1012A00090FAA0F1B1FA81F101F1010101F01F0101
:1012B00042EA816103D1C0F3846004E040E090FA27
:1012C000A0F0B0FA80F0474A00F1010000F01F00E2
:1012D00000EB400002EB005041EA000141F00071D8
:1012E000AA68206803F03FFCD5F800C0BCF1000FED
:1012F00026DA3D4B20683D49DFF8F490984201D052
:10130000B04201D10A4600E04A469268984202F093
:10131000E07201D0B04209D19D68D6F8088005F08E
:10132000010508F0010845EA080503E0DAF808506D
:1013300005F0010545B1606D012740F020006065B2
:10134000384684F850B08DE62A4DAC451CD11502C4
:101350001AD45045F4D1984202D0B04200D0494648
:101360008B6842F4000023F0E07202438A60234954
:1013700021480968B1FBF0F04000801C00E0401EED
:1013800000900028FBD1DBE71D4DAC450CD1D50109
:101390000AD45045D4D1984202D0B04200D0494638
:1013A0008B6842F080700EE0164DAC45C8D15502F6
:1013B000C6D45045C4D1984202D0B04200D049466C
:1013C0008B6842F4800023F0E07202438A60B7E742
:1013D00000210240006002580010005CFFFF0F0077
:1013E0000000FF47000020FE0020024000230240D2
:1013F00000630258000084CB400D03001C00002451
:10140000000052C70000B8CF0149012008707047A2
:1014100000000024704770472DE9F05F0446006823
:1014200006684568DFF87082DFF870B2DFF8709206
:10143000404501D0484501D1584600E099488068B0
:1014400000F01F07B0070ED5A8070CD5606DC006C9
:1014500003D4606D40F4006060652046FFF74FFDE7
:10146000216802200860700701D5680703D430079F
:1014700037D5280735D5606DC00603D4606D40F4BC
:1014800000706065206803F066FB20B32068484563
:1014900001D1424600E00246824208D03FB1052F0A
:1014A00005D0092F03D0484503D1414602E0C16869
:1014B00001E00146C96889040DD4016809070AD50D
:1014C00003F041FB58B3606D40F010006065A06D03
:1014D00040F00100A0652046FFF796FF21680C2030
:1014E0000860B00601D5A80603D4700658D5680672
:1014F00056D5606DC00603D4606D40F40050606541
:101500002068C16C11F4C07F1AD000218A4603F014
:1015100022FB02462068484514D1434613E0206868
:10152000416821F00C014160606D20F480706065BD
:10153000606DC004CFD4606D40F001006065CAE703
:101540000121E3E70346834208D03FB1062F05D0CF
:10155000072F03D0484503D1414602E0C16801E0AE
:101560000146C968BAF1000F14D08B0102D58AB1C7
:101570008A040FD4026852060CD589020AD403F0FB
:10158000DEFAE8B3606D40F010006065A06D40F0D9
:101590000100A0652046FFF7B3FC216860200860C9
:1015A00030060BD5280609D5606D40F480306065A3
:1015B000204600F08DF9216880200860F0050CD5E8
:1015C000E8050AD5606D40F4003060652046FFF7FD
:1015D00099FC21684FF480700860B0050CD5A8050F
:1015E0000AD5606D40F4802060652046FFF78BFCD3
:1015F00021684FF400700860F00631D5E80600E07D
:101600000AE02DD5206BE8B12068EFB3404501D04A
:10161000484512D1584611E02068416821F0600128
:101620004160606D20F480506065606DC005B1D48C
:10163000606D40F001006065ACE71A48806800F416
:10164000404050B1606D40F480606065A06D40F036
:101650000200A0652046FFF7DEFE2168102008602A
:10166000700517D5680515D5616D4FF4806041F49C
:1016700080416165A16D41F00801A16521680860A4
:101680002046BDE8F05F00E001E0FFF73ABCC0682B
:101690008007D6E7BDE8F09F00200240002302400B
:1016A0000021024000630258F8B54FF00006040024
:1016B0003546009602D0606D10B107E00120F8BDFC
:1016C000204600F007F9A66584F85060206881681C
:1016D000C1F3407119B18168704A1140816020687E
:1016E0008168C1F3007181B981686D4A114041F090
:1016F000805181606C496B480968B1FBF0F0401C77
:1017000000E0401E00900028FBD120688168C1F3F2
:10171000007141B9616D012541F010016165A16D54
:1017200041F00101A16503F00EFA616DC90600D414
:1017300020B1606D012540F0100093E0606D20F451
:10174000807040F0020060652068816811F0010F30
:101750001FD1564A564B904201D0984207D191680A
:101760009E6801F0010106F00106314303E0514992
:10177000896801F0010161B9904201D0984201D11C
:101780004D4800E04D488268616822F47C120A43AB
:10179000826001F04DF941F20301884202D9A0684C
:1017A00010280CD0617D227FA368206B490341EA99
:1017B000024118430843217F01290CD010E0607DCD
:1017C000227F216B400340EA024241F010001043A7
:1017D00040F00C00EFE7218C394A02EB414108430D
:1017E000616A29B1A26A01F47871014342EA0100F9
:1017F0002168344BCA681A400243CA60206803F06B
:10180000A2F90646206803F09AF930431DD12168F9
:1018100044F20303267DE26AC86842EA86329843AE
:101820001043C86094F8380001281ED02068016970
:1018300021F0010101612068626B016921F07041B2
:10184000114301612046FFF70FF8E0680128206886
:101850001CD0016B21F00F010163606D20F00200CC
:1018600040F0010060652846F8BD2068A28F164F41
:10187000D4E9101C154E07EB0247A36C026941EA3C
:101880000C013B43324019431143D3E7A269016B7A
:10189000521E21F00F011143DEE70000C0FFFF5F81
:1018A000C0FFFF7F400D03001C0000240020024009
:1018B00000210240006002580023024000630258E9
:1018C0000000FEFF03C0F0FF0100FFFF1EF800FC58
:1018D00070470000F0B5B7B00646142130A8FEF7F7
:1018E00052FDC0216846FEF74EFD2D493068884202
:1018F00054D1022000224FF400210091CDE90120B3
:101900001023154606AACDE90330C024059082E8CD
:10191000310068460995299501F0C2FC08B1FFF72E
:10192000ECFA2048016841F020010160006800F0F5
:10193000200035901B480830016841F0010101602A
:10194000006830AA032100F001003590202082E8D1
:101950002300154830A900F055FF15480921134C04
:101960000215831420609001C4E90115C4E90352F3
:101970001701C4E9075065622046C4E9053700F045
:1019800011FC08B1FFF7B9FA0022F46412201146E5
:10199000A66301F0CBF8122001F0BAF837B0F0BD21
:1019A00000200240D8440258000002589000012450
:1019B000100002402DE9F047384E04460068914679
:1019C000DFF8DC808A46B04201D0404501D135497C
:1019D00000E03549896801F01F0503F0B4F80028DC
:1019E00059D194F85000012855D001204FF000073C
:1019F00084F8500025B1052D02D0092D00D003E058
:101A00002046FEF7FBFF18B184F85070BDE8F08760
:101A1000616D40F6016320689943404541F480714F
:101A2000616500D00646864200D01DB9606D20F485
:101A300080106065606DC00404D5A06D20F00600C4
:101A4000A06500E0A7651C20E16C184ACA63E26C3F
:101A500017491164E26C1749D1642168086084F861
:101A600050702068416841F0100141602068E16ACF
:101A7000C26822F003020A43C26021684B46E06C50
:101A80005246403100F070FD21680B4B8A681A40C5
:101A9000121D8A60BAE70220B8E700000020024069
:101AA000002102400023024000630258710900082F
:101AB000F3090008D9090008C0FFFF7F2DE9FC5F8A
:101AC0000446F74E0020DFF8D88300904FF41652FA
:101AD000F44808F11808A56DDFF8C493DFF8C0A337
:101AE000016809F1300920680AF1480AB1FBF2F1F6
:101AF000B04201912F68D5F800C0DFF8ACB335D003
:101B00004146884232D0484530D050452ED05845C5
:101B10002CD0E5491831884228D0E3493031884239
:101B200024D0E1494831884220D0E04988421DD084
:101B3000DE491831884219D0DC493031884215D04D
:101B4000DA494831884211D0DFF860E30EF1600EC7
:101B500070450BD0D54A7832904207D0D34B9033A2
:101B6000984203D0D149A83188427DD194F85C20B5
:101B7000082102F01F0201FA02F23A424AD0B042B2
:101B800032D0404530D048452ED050452CD0584515
:101B90002AD0C54A1832904226D0C34A30329042E9
:101BA00022D0C14A483290421ED0C04A90421BD037
:101BB000BE4A1832904217D0BC4A3032904213D0FD
:101BC000BA4A483290420FD0B84A603290420BD0A5
:101BD000B64A7832904207D0B44A9032904203D04D
:101BE000B24AA832904203D1026802F0040202E035
:101BF000026802F008026AB1026822F00402026080
:101C000094F85C0000F01F008140A960606D40F016
:101C10000100606594F85C00012100F01F00814024
:101C2000394240D02068B04234D0404532D0484597
:101C300030D050452ED058452CD09B4A1832904277
:101C400028D0994A3032904224D0974A4832904264
:101C500020D0964A90421DD0944A1832904219D012
:101C6000924A3032904200E0AFE113D08F4A4832BE
:101C700090420FD08D4A603290420BD08B4A78321E
:101C8000904207D0894A9032904203D0874AA832C6
:101C900090427DD1406910F0800F04D0A960606D42
:101CA00040F00200606594F85C00042100F01F0021
:101CB000814039423ED02068B04232D0404530D0D9
:101CC00048452ED050452CD058452AD0764A183257
:101CD000904226D0744A3032904222D0724A483222
:101CE00090421ED0714A90421BD0704A18329042E6
:101CF00017D06E4A3032904213D06C4A483290422C
:101D00000FD06A4A603290420BD0684A78329042D3
:101D100007D0664A9032904203D0644AA83290427B
:101D20004ED1006810F0020F04D0A960606D40F041
:101D30000400606594F85C00102100F01F008140F1
:101D4000394258D02068B04234D0404532D048455E
:101D500030D050452ED058452CD0534A183290429E
:101D600028D0514A3032904224D04F4A48329042D3
:101D700020D04E4A90421DD04C4A1832904219D081
:101D80004A4A3032904215D0484A4832904200E0E8
:101D900014E00FD0454A603290420BD0434A78326B
:101DA000904207D0414A9032904203D03F4AA83235
:101DB000904207D1006800F0080006E0006872E772
:101DC0000068B7E7006800F00400A0B1A9602068CF
:101DD0000168490304D50068000308D5A16C07E039
:101DE0000168C90503D4016821F008010160216C74
:101DF00009B12046884794F85C00202100F01F00BC
:101E00008140394279D02068B04232D0404530D04C
:101E100048452ED050452CD058452AD0224A183259
:101E2000904226D0204A3032904222D01E4A483278
:101E300090421ED01D4A90421BD01C4A183290423C
:101E400017D01A4A3032904213D0184A4832904282
:101E50000FD0164A603290420BD0144A783290422A
:101E600007D0124A9032904203D0104AA8329042D2
:101E700003D1006800F0100002E0006800F00200EA
:101E8000B0B3A96094F835000428206801680FD029
:101E900049037ED5006800032BD4616C2AE0000062
:101EA000100002401C000024700002401004024098
:101EB00021F0160101602068416921F08001416133
:101EC000206C08B9A06C20B12068016821F00801DD
:101ED000016094F85C303F21012003F01F030022D1
:101EE0009940A96084F8350084F83420216D65E0BC
:101EF00003E0E16B09B120468847606D00287DD082
:101F0000606DC00759D02068042184F83510B042B4
:101F10002BD0404529D0484527D0504525D058459D
:101F200023D09D49884220D09B49183188421CD03B
:101F300099493031884218D09849884215D097493C
:101F40001831884211D09549303188420DD09349DB
:101F50004831884209D091496031884205D08F4983
:101F60007831884201D08D499031016821F001011A
:101F7000016020680099019A491C0091914202D8A1
:101F80000168C907F6D10068C00710D003200FE030
:101F9000FFE70168C905ACD403680121002223F0E2
:101FA0001003036084F8351084F83420A1E7012081
:101FB00084F83500002084F83400E16C00291DD03D
:101FC00002B02046BDE8F05F0847754988421DD041
:101FD00073491431884219D071492831884215D08B
:101FE0006F493C31884211D06D49503188420DD043
:101FF0006B496431884209D0694900E084E0783156
:10200000884203D066498C3188427DD194F85C8047
:102010000427016808F01F0807FA08F717EA0C0FF1
:10202000009746D04F0744D500980F04686003D549
:10203000C8033CD4A16CC1E7880638D42068B042FC
:102040002DD055496039884229D0484527D0504580
:1020500025D0584523D05049884220D04E491831C8
:1020600088421CD04C493031884218D04B498842B4
:1020700015D04A491831884211D048493031884238
:102080000DD046494831884209D0704507D090426A
:1020900005D0984203D04149A831884203D1016854
:1020A00021F0080102E0016821F004010160216CC7
:1020B00084E7022707FA08F717EA0C0F00974ED0BB
:1020C0008F074CD500980F04686003D5C80344D42B
:1020D000616C73E7880640D42068B0422FD02E4947
:1020E000603988422BD0484529D0504527D05845E3
:1020F00025D02949884222D02749183188421ED04C
:1021000025493031884200E044E018D02349884214
:1021100015D022491831884211D0204930318842E7
:102120000DD01E494831884209D0704507D09042F1
:1021300005D0984203D01949A831884203D10168DB
:1021400021F0140102E0016821F00A01016001217F
:1021500084F83510002084F83400E16B2EE7082263
:1021600002FA08F212EA0C0F14D0090712D501681E
:1021700021F00E01016094F85C100120002201F0B2
:102180001F0100FA01F16960606584F8350084F888
:10219000342012E7BDE8FC9F880002401004024092
:1021A000085402582DE9F05F044600F047FC002C6B
:1021B00007467DD0E34E022120684FF00308DFF888
:1021C00088934FF00005DFF884A3B042DFF880B3B6
:1021D00034D0DC4A1832904230D048452ED0504599
:1021E0002CD058452AD0DA4A1832904226D0D84A04
:1021F0003032904222D0D64A483290421ED0D54A40
:1022000090421BD0D34A1832904217D0D14A303274
:10221000904213D0CF4A483290420FD0CD4A60321C
:1022200090420BD0CB4A7832904207D0C94A9032C4
:10223000904203D0C74AA83290427DD184F835102D
:10224000B04284F834502ED0BE49183188422AD08A
:10225000484528D0504526D0584524D0BC4918318F
:10226000884220D0BA49303188421CD0B849483120
:10227000884218D0B749884215D0B64918318842EB
:1022800011D0B449303188420DD0B249483188422A
:1022900009D0B0496031884205D0AE4978318842D2
:1022A00001D0AC499031016821F00101016008E0E2
:1022B00027E100BF00F0C2FBC01B052801D9202187
:1022C0001CE120680068C007F4D104F1080021680F
:1022D000D4E9053C8E4685C809681043D4E907282F
:1022E0001F43636A38439C4F40EA0C001043394057
:1022F00040EA0800042B40EA010003D1D4E90B12A4
:1023000011430843954909686FF30F01B1F1005F6C
:102310000FD36168A1F12902052A08D9163A032AC8
:1023200005D9083A012A02D94F39032901D840F4C6
:102330008010CEF8000000E023E02068676A406962
:10234000042F20F0070047EA00070DD1D4E90A0165
:10235000074349B12046FEF795FC28B1402060654F
:10236000012184F83510CCE0206847612046FEF753
:10237000A7FB94F85C203F2102F01F02914081608E
:1023800054E0774A90421BD0754B1433984217D0D3
:10239000734B2833984213D0714B3C3398420FD083
:1023A0006F4B503398420BD06D4B6433984207D03B
:1023B0006B4B7833984203D0694B8C3398427DD174
:1023C00084F8351084F83450664B0168A26801EA3D
:1023D000030E402A73D0802A72D00022D4E90378F9
:1023E000D4E9053142EAD70242EAD8085C4AD4E986
:1023F000077C48EAD30848EAD10141EAD7015242B2
:1024000041EA1C11142341EA0E01016020681044C6
:10241000B0FBF3F08000E0652046FEF751FB94F836
:102420005C20012102F01F02914041602068B0420F
:1024300057D044491831884253D0484551D050456F
:102440004FD058454DD042491831884249D0404973
:102450003031884245D03E494831884241D03D49DB
:1024600088423ED03B49183188423AD03949303110
:10247000884236D037494831884232D035496031B8
:1024800088422ED03349783188422AD03149903160
:10249000884226D02F49A831884222D0304988422C
:1024A0001FD02F49143188421BD02D492831884232
:1024B00017D02B493C31884213D002E01DE017E0D1
:1024C00018E02749503188420BD0254964318842B1
:1024D00007D023497831884203D021498C31884282
:1024E00029D12046FEF746FBA06880280CD00CE0DE
:1024F000102273E74FF4804270E74021616584F851
:1025000035800120BDE8F09F6560216E207908606C
:10251000D4E9190141606068401E072808D82046A8
:10252000FEF776FBE06E0560D4E91C01416002E035
:10253000E566256765670120656584F8350000203C
:10254000E0E7000010000240400002405800024056
:1025500070000240100402403F8010FE0010005C3A
:10256000085402580F00FEFF2DE9F84F04008C4676
:102570004FF00000009014D094F83400012812D0DD
:1025800094F835500120002184F83400012D0CD03E
:10259000C00260650120009084F834100098BDE806
:1025A000F88F0120FBE70220F9E78C4D0226206816
:1025B00084F83560A8428A4D61658A4E8A4FDFF8FB
:1025C0002C82DFF82C92DFF82CA2DFF82CB226D078
:1025D000A84224D0B04222D0B84220D040451ED0DC
:1025E00048451CD050451AD0584518D083498842D8
:1025F00015D082491831884211D080493031884243
:102600000DD07E494831884209D07C4960318842EA
:1026100005D07A497831884201D0784990310168F3
:1026200021F00101016061462046FEF755FB6B4930
:10263000206888422CD0A8422AD0B04228D0B84284
:1026400026D0404524D0484522D0504520D058457A
:102650001ED06A4A90421BD0684A1832904217D066
:10266000664A3032904213D0644A483290420FD0CA
:10267000624A603290420BD0604A7832904207D072
:102680005E4A9032904203D05C4AA83290420CD10C
:10269000026822F01E0242F016020260206C88B12D
:1026A0002068026842F008020BE0026822F00E0285
:1026B00042F00A020260206C20B12068026842F0F9
:1026C00004020260206888424BD0A84249D0B04240
:1026D00047D0B84245D0404543D0484541D0504509
:1026E0003FD058453DD0454A90423AD0434A1832EF
:1026F000904236D0414A3032904232D03F4A48323E
:1027000090422ED03D4A603290422AD03B4A7832E5
:10271000904226D0394A9032904222D0374AA8328D
:1027200090421ED0364A90421BD0354A1432904215
:1027300017D0334A2832904213D0314A3C3290426B
:102740000FD02F4A503290420BD02D4A6432904223
:1027500007D02B4A7832904203D0294A8C329042DB
:102760000DD1206E0268D20303D5026842F4807254
:102770000260E06E18B1026842F480720260206864
:10278000884226D0A84224D0B04222D0B84220D0DD
:1027900040451ED048451CD050451AD0584518D049
:1027A0001649884215D015491831884211D013496D
:1027B000303188420DD011494831884209D00F4943
:1027C0006031884205D00D497831884201D00B49EB
:1027D0009031016841F001010160DFE61000024024
:1027E00028000240400002405800024070000240B1
:1027F00088000240A0000240B800024010040240DD
:10280000085402582DE9F84F03247D4D00234FF062
:1028100001094FF0B04B4FF00F0AE9E009FA03F756
:102820003A4076D00E7906F00306012E01D0022E32
:1028300018D1D0F808C04FEA430ECE6804FA0EF85B
:102840002CEA080C06FA0EF646EA0C068660D0F86A
:1028500004C00E792CEA070CC6F300169E4046EA27
:102860000C0646600E79F643B6070BD0C6684FEAF1
:1028700043088F6804FA08FC26EA0C0607FA08F7F2
:102880003743C7600E7906F00306022E12D1DE0828
:102890000F694FEA437C00EB8606B646366A4FEA7C
:1028A000DC6C0AFA0CF807FA0CF726EA080637433C
:1028B000CEF820700F7906684FEA430807F0030747
:1028C00004FA08FC07FA08F726EA0C063743076003
:1028D0004E6816F4403F1CD04A4E376847F0020756
:1028E000376036689F0706F00206009623F003065D
:1028F00006F1B046B6463F0FD6F80864DFF8088107
:102900000AFA07FC404526EA0C0603D14FF0000CFA
:1029100041E06CE0DFF8F4C0604502D14FF0010CFB
:1029200039E0DFF8ECC0604502D14FF0020C32E034
:10293000DFF8E0C0604502D14FF0030C2BE0DFF878
:10294000D8C0604502D14FF0040C24E0DFF8CCC0C1
:10295000604502D14FF0050C1DE0DFF8C4C06045B2
:1029600002D14FF0060C16E0DFF8B8C0604502D186
:102970004FF0070C0FE0DFF8B0C0604502D14FF018
:10298000080C08E0DFF8A4C0604502D14FF0090C44
:1029900001E04FF00A0C0CFA07FC4CEA060CCEF8EA
:1029A00008C44F68DBF80060FF0226EA020600D583
:1029B00016435F46CBF80060D1F804C0DBF8046032
:1029C0005FEA8C2C26EA020600D516437E606E680C
:1029D0004F6826EA0206BF0300D516436E602E68D4
:1029E0004F6826EA0206FF0300D516432E605B1CE3
:1029F0000A6832FA03F67FF411AFBDE8F88F0000E1
:102A000080000058F44402580000025800040258A4
:102A100000080258000C0258001002580014025816
:102A200000180258001C02580020025800240258C6
:102A300001480068000C70470010005C0148806885
:102A40007047000010000024024881680278114499
:102A50008160704710000024032010B500F086F854
:102A600001F068FA0F4A104914681368C4F303228E
:102A700003F00F038A5CC95C02F01F0201F01F0122
:102A8000D0400A4A20FA01F11160094908600F207C
:102A900000F010F808B1012010BD00F02BF8002064
:102AA00010BD000018440258367B000820000024A6
:102AB0001C00002470B50D4D04462878A0B14FF4D9
:102AC0007A71B1FBF0F00A490968B1FBF0F001F04E
:102AD0008EFD48B9102C07D200222146501E00F06E
:102AE00025F800206C6070BD012070BD100000242E
:102AF0001C000024054808B5016841F0020101608E
:102B0000006800F00200009008BD0000F444025884
:102B1000002809DB410900F01F028900012001F1B2
:102B2000E0219040C1F80001704700000E4BF0B466
:102B30001B680D46C3F30223C3F10706042E00D918
:102B40000426191D072901D2002300E0DB1E012401
:102B500004FA06F19C40491E2940641E9940144025
:102B60002143F0BC02F0DEBE0CED00E0064900F0AF
:102B7000070210B54FF6FF040868044B204040EAF6
:102B800002201843086010BD0CED00E00000FA05BB
:102B9000134970B50A68D243520705D5096801F098
:102BA0000701814213D118E00A6822F007020243AC
:102BB0000A60FFF743FF0A4D4FF47A760446083D5A
:102BC00007E000BFFFF73AFF001BB04201D9012028
:102BD00070BD2868C0438004F4D4002070BD00009C
:102BE0000C48025810B501F05FF905490968054A1B
:102BF000C1F30211515C01F01F01C84010BD00007B
:102C000020440258367B00084A4930B5494C0B1D18
:102C10000A680C3409681D68246802F0030305F093
:102C20000102C1F30511C4F3CC04002914FB02F224
:102C300000EE102AF8EE400A76D0414A9FED3E1A87
:102C4000DFED3E1AB7EE000A23B1012B5AD0022B5A
:102C500018D15CE0374C283C23689B0612D5394BD1
:102C6000246801EE901A1168C4F3C104F8EE612AD9
:102C7000E34001EE903AC1F30801F8EE611A81EEEB
:102C8000A22A07E002EE101A1168F8EE422A81EE3D
:102C9000A22A45E001EE901A1168F8EE611A40EEA2
:102CA000811A71EE800A62EE200AC1F3462101EE1C
:102CB000101AB8EE411A31EE001AC0EE811ABCEEBD
:102CC000E11A80ED001A1168C1F3064101EE101AF5
:102CD000B8EE411A31EE001AC0EE811ABCEEE11ACC
:102CE00080ED011A1168C1F3066101EE101AB8EE09
:102CF000411A31EE000A80EE801ABCEEC10A80ED66
:102D0000020A30BD01EE901ADFED0F2A03E001EE5A
:102D1000901ADFED0E2A1168F8EE611A82EEA12AF0
:102D2000C1F30801B6E7FFE700210160416081605F
:102D300030BD000028440258000000390024744CC3
:102D4000304402580090D0030024744A20BCBE4B8B
:102D5000494930B5484C0B1D0A68143409681D6890
:102D6000246802F00303C5F30012C1F30531C4F374
:102D7000CC04002914FB02F200EE102AF8EE400AFF
:102D800075D03F4A9FED3D1AB7EE000A6BB1DFEDFB
:102D90003D1A012B01D0022B64D002EE101A1168EB
:102DA000F8EE422A81EEA22A21E0334C283C236827
:102DB0009B0612D5344B246801EE901A1168C4F3B7
:102DC000C104F8EE612AE34001EE903AC1F3080134
:102DD000F8EE611A81EEA22A0BE001EE901ADFED07
:102DE0002B2A00BFF8EE611A116882EEA12AC1F306
:102DF000080101EE901A1168F8EE611A40EE811A8E
:102E000071EE800A62EE200AC1F3462101EE101A2B
:102E1000B8EE411A31EE001AC0EE811ABCEEE11A8A
:102E200080ED001A1168C1F3064101EE101AB8EEE8
:102E3000411A31EE001AC0EE811ABCEEE11A80EDA3
:102E4000011A1168C1F3066101EE101AB8EE411AB9
:102E500031EE000A80EE801ABCEEC10A80ED020A53
:102E600030BD04E001EE901ADFED092ABAE7002137
:102E7000016041608160F3E7284402580000003996
:102E8000384402580024744A0090D0030024744C43
:102E900020BCBE4B494930B5484C0B1D0A681C3458
:102EA00009681D68246802F00303C5F30022C1F31A
:102EB0000551C4F3CC04002914FB02F200EE102AE1
:102EC000F8EE400A75D03F4A9FED3D1AB7EE000A72
:102ED0006BB1DFED3D1A012B01D0022B64D002EE65
:102EE000101A1168F8EE422A81EEA22A21E0334C32
:102EF000283C23689B0612D5344B246801EE901AB7
:102F00001168C4F3C104F8EE612AE34001EE903A7F
:102F1000C1F30801F8EE611A81EEA22A0BE001EE7E
:102F2000901ADFED2B2A00BFF8EE611A116882EECD
:102F3000A12AC1F3080101EE901A1168F8EE611A96
:102F400040EE811A71EE800A62EE200AC1F346213A
:102F500001EE101AB8EE411A31EE001AC0EE811AD5
:102F6000BCEEE11A80ED001A1168C1F3064101EED2
:102F7000101AB8EE411A31EE001AC0EE811ABCEEFA
:102F8000E11A80ED011A1168C1F3066101EE101A11
:102F9000B8EE411A31EE000A80EE801ABCEEC10A8A
:102FA00080ED020A30BD04E001EE901ADFED092A3F
:102FB000BAE70021016041608160F3E728440258CC
:102FC00000000039404402580024744A0090D003A5
:102FD0000024744C20BCBE4B2DE9F04FAC4A054692
:102FE000DFF8A8A280F48070DFF8AC9289B01311EA
:102FF000AA4C0843A748AAF104064FF0805C4FF0A2
:1030000000582CD085F400770F4357D0DFF87CB2FE
:1030100085F480670F430BF1080B61D085F40067DE
:103020000F4374D085F480570F436ED085F400575A
:103030000F434FF480394FF4003E67D085F40027EA
:103040000F4371D085F480370F436ED085F48046EE
:103050000E436BD085F400420A4368D02AE0DAF8C8
:10306000001001F00701052924D2DFE801F075BC4A
:103070007D25B10006A8FFF7C7FD079809B0BDE898
:10308000F08F6846FFF764FE0098F7E703A8FFF7A4
:1030900001FF0398F2E72068C0F3C10022FA00F0B4
:1030A000ECE72268D20571D561456FD11846E5E796
:1030B0004145E3D00020E1E74846DFE7DAF80010B9
:1030C00001F4E07180294FD004DC002944D040296C
:1030D000F0D188E0C029EFD0B1F5807FEAD177E068
:1030E000DBF8001001F46001B1F5800F3CD004DC86
:1030F00091B3B1F5001FDDD175E0B1F5C00FDBD0A4
:10310000B1F5000FD6D163E001E018E030E0DBF864
:10311000001001F0E061B1F1007F25D008DCD9B1E9
:10312000B1F1807FC6D15EE049E06CE079E09CE0DF
:10313000B1F1407FC0D0B1F1806FBBD148E0DAF887
:10314000001001F4E041B1F5005F0DD005DC19B1CC
:10315000B1F5805FAED146E094E0B1F5405FABD011
:10316000B1F5804FA6D133E020688000A2D58DE76D
:10317000DAF8001001F4E021B1F5403F6CD006DC34
:1031800061B149457AD0714594D157E037E0B1F546
:10319000802F65D0B1F5A02F8CD10CE000F0A6FEF9
:1031A0006CE76846FFF7D4FD019867E703A8FFF7CF
:1031B00071FE049862E721688903F1D47AE7DBF8AD
:1031C000001011F440310ED0494510D07145F5D1B1
:1031D0003168256801F040516D077FF562AF002925
:1031E0007FF45FAF57E720680001E7D549E7206823
:1031F0008000E3D503A8FFF74DFE05983EE722685F
:103200009203DBD554E7306810F480303AD048455B
:10321000D4D120680001D1D56846FFF799FD029806
:103220002CE7DBF8001001F0E041B1F1405F13D072
:1032300008DC71B1614521D04145BFD120688000D3
:10324000B4D437E7B1F1804F0AD0B1F1A04FB2D07A
:1032500030E7FFF7C7FC11E720684007AED51AE753
:103260002068C005AAD521E708E0DAF8001011F0BF
:103270004051A0D0614505D041459FD12068000153
:103280008FD417E72068800198D5F3E650440258A0
:103290000090D00340787D010080BB0000440258BC
:1032A0002DE9FE4F0546DFF8E48350F8081B0024A3
:1032B000F64FC943019005F12800264608F124087D
:1032C000009008011DD4A86E50B1B0F5801F0CD03D
:1032D000B0F5001F0ED0B0F5401F1ED001240FE046
:1032E000386840F40030386017E00198022101F09E
:1032F00033FD03E00098022101F0BEFD04000CD074
:1033000026462888C043C00523D4A86D05281ED2B0
:10331000DFE800F00C11161B1B00AA6ED8F8001095
:1033200021F440111143C8F80010EAE7386840F46E
:103330000030386009E00198002101F00DFD03E044
:103340000098002101F098FD044674B100E00124CA
:1033500026462888C043800528D4E86D80281ED0E2
:103360000CDC90B140280ED114E0AA6DD8F8001002
:1033700021F007011143C8F80010EAE7C02813D074
:10338000B0F5807F10D001240FE0386840F40030A1
:10339000386009E00198002101F0DEFC03E00098AC
:1033A000002101F069FD04469CB126462888DFF81B
:1033B000DC92C04309F12C0940052CD4D5F8A800B3
:1033C000B0F5800F20D00DDCA0B1B0F5001F0FD1FB
:1033D00015E0EA6DD8F8001021F4E0711143C8F847
:1033E0000010E3E7B0F5C00F13D0B0F5000F10D018
:1033F00001240FE0386840F40030386009E001989B
:10340000002101F0A9FC03E00098002101F034FD47
:1034100004467CB126462888C04300052DD4D5F843
:10342000AC00B0F1007F21D00EDCA8B1B0F1807FFC
:1034300010D116E0D5F8A820D9F8001021F46001C9
:103440001143C9F80010E6E7B0F1407F13D0B0F1A6
:10345000806F10D001240FE0386840F400303860ED
:1034600009E00198002101F077FC03E000980021B9
:1034700001F002FD044674B126462868C04380016D
:103480001FD4E86CD8B110280FD0202812D03028D3
:1034900015D0012414E0D5F8AC20D9F8001021F0A3
:1034A000E0611143C9F80010E7E7386840F40030E4
:1034B000386004E00198022101F04EFC044674B12A
:1034C00026462888C043C0042BD4286EB0F5005F80
:1034D00020D00DDCA0B1B0F5805F0FD115E06B48B6
:1034E000EA6C2030016821F0300111430160E8E707
:1034F000B0F5405F13D0B0F5804F10D001240FE03D
:10350000386840F40030386009E00198002101F08B
:1035100023FC03E00098002101F0AEFC04468CB1CE
:1035200026462888C043800429D4686EB0F5403F01
:1035300023D010DC08B3B0F5803F14D0B0F5003FC5
:103540000FD115E02A6ED8F8001021F4E0411143A4
:10355000C8F80010E5E7B0F5802F0ED0B0F5A02F29
:103560000BD001240AE00198012101F0F5FB03E0F2
:103570000098012101F080FC044694B12646288879
:10358000C04340042AD4D5F8B000B0F1405F23D046
:1035900010DC08B3B0F1805F14D0B0F1005F0FD140
:1035A00015E06A6ED8F8001021F4E0211143C8F844
:1035B0000010E4E7B0F1804F0ED0B0F1A04F0BD077
:1035C00001240AE00198012101F0C6FB03E0009804
:1035D000012101F051FC044674B126462888C043FD
:1035E00000041FD4286FD8B1B0F1805F0ED0B0F1C5
:1035F000005F10D0012414E0D5F8B020D9F80010F5
:1036000021F0E0411143C9F80010E7E7386840F4C1
:103610000030386004E00198012101F09DFB044670
:1036200074B126462868C043C0011ED4A86CD0B12E
:1036300001280ED0022811D0032814D0012413E051
:103640002A6FD8F8001021F040511143C8F800103B
:10365000E8E7386840F40030386004E0019802215F
:1036600001F07AFB0446ACB126462868DFF81CB0AE
:10367000C043ABF11C0B400252D40548016841F431
:1036800080710160FFF7DAF9824611E02C4402589C
:1036900000480258FA48AA6C016821F0030111435E
:1036A0000160E2E7FFF7CAF9A0EB0A00642835D809
:1036B000F4480068C005F5D58CBBDFF8C4A3B5F8A5
:1036C000B4100AF1240ADAF8000001F4407100F4A1
:1036D0004070884211D0DAF80010DAF8002021F4A6
:1036E000407142F48032CAF80020DAF8002022F457
:1036F0008032CAF80020CAF80010D5F8B400B0F53E
:10370000807F1AD1FFF79AF9029012E0FFF796F93D
:103710000299411A41F2883081420AD9032426468F
:103720002878DFF85CA3C0430AF1080AC00721D05B
:103730003CE0DAF800008007E8D5D5F8B410C1F312
:103740000120032858460DD0016821F47C51016006
:10375000B5F8B420DAF80010C2F30B021143CAF82E
:103760000010DDE7C84A036802EA111223F47C5115
:103770001143ECE7E86F182816D005DCA0B1082843
:1037800008D0102804D10AE020280DD028280BD01A
:1037900001240AE00198012101F0DEFA03E000981B
:1037A000012101F069FB044664B126462878C04334
:1037B00080071ED4A86F062819D2DFE800F0160C87
:1037C00011161616EA6FDAF8001021F038011143CD
:1037D000CAF80010EAE70198012101F0BDFA03E000
:1037E0000098012101F048FB04467CB100E001246F
:1037F00026462878C04340071FD4D5F894000628F1
:1038000019D2DFE800F0160C11161616AA6FDAF8B6
:10381000001021F007011143CAF80010E9E70198F0
:10382000012101F099FA03E00098012101F024FB45
:103830000446A4B100E0012426462878C04380064F
:103840002BD4D5F89000B0F1405F24D011DC10B338
:10385000B0F1805F15D0B0F1005F10D116E0D5F85F
:103860009420D9F8001021F007011143C9F8001085
:10387000E3E7B0F1804F0ED0B0F1A04F0BD00124A0
:103880000AE00198002101F067FA03E000980221A4
:1038900001F0F2FA044694B126462878C043400667
:1038A0002BD4D5F89C00B0F5406F24D011DC10B3B8
:1038B000B0F5806F15D0B0F5006F10D116E0D5F8D7
:1038C0009020DAF8001021F0E0411143CAF800100E
:1038D000E3E7B0F5805F0ED0B0F5A05F0BD0012418
:1038E0000AE00198002101F037FA03E00098022174
:1038F00001F0C2FA044694B126462878C043000677
:103900002BD4D5F8A000B0F5C04F24D011DC10B3F3
:10391000B0F5005F15D0B0F5804F10D116E0D5F8A6
:103920009C20D9F8001021F4E0511143C9F800108F
:10393000E3E7B0F5004F0ED0B0F5204F0BD00124D7
:103940000AE00198002101F007FA03E00098022143
:1039500001F092FA044654B126462878C043000785
:103960001ED4D5F88400B0F5805F0AD00FE0D5F8FA
:10397000A020D9F8001021F460411143C9F80010CB
:10398000EBE70098022101F077FA00B10126D5F8A3
:103990008420DAF8001021F440511143CAF80010D5
:1039A0002878C043C00613D4D5F89800B0F5807FBE
:1039B00005D10098022101F05FFA00B10126D5F887
:1039C0009820D9F8001021F440711143C9F8001073
:1039D0002868C043000316D4D5F8A40038B1B0F568
:1039E000803F09D0B0F5003F0BD001240AE00198D8
:1039F000002101F0B1F903E00098022101F03CFA46
:103A000004468CB126462868C043400322D4D5F82A
:103A10008800B0F5801F11D0B0F5001F13D0B0F5AD
:103A2000401F15D0012414E0D5F8A420D9F80010C7
:103A300021F440311143C9F80010E4E7386840F43C
:103A40000030386004E00098012101F015FA0446C6
:103A50005CB126462868C043C00323D4286DA8B1B2
:103A6000B0F5803F17D001241BE0D5F88820DAF8A4
:103A7000001021F440111143CAF80010EAE70000D9
:103A80004C44025800480258CFFFFF00386840F409
:103A90000030386004E00198022101F05DF904462D
:103AA000E4B126462868C043800005D4009802216E
:103AB00001F0E2F900B101262868C04380031BD45D
:103AC000D5F88000B0B1B0F5807F0FD0B0F5007FA1
:103AD00010D0B0F5407F0DD001240CE05A482A6D7B
:103AE000016821F4803111430160DBE7386840F45C
:103AF00000303860ECB326462868C043C00207D4C3
:103B00006A6FD8F8001021F000411143C8F8001086
:103B10002868C043C00008D4D5F8B820DBF80010EE
:103B200021F480411143CBF800102868C043800283
:103B300007D4EA6ED8F8001021F080711143C8F85C
:103B400000102868C04340000CD4DBF8001021F4BA
:103B50000041CBF80010DBF80010D5F8BC20114371
:103B6000CBF800102868C04308D437486A6D016854
:103B700000E018E021F04051114301602868C04383
:103B8000000208D4D5F88C20DAF8001021F44001A6
:103B90001143CAF8001028790024C04300F0010046
:103BA00020430AD00FE0D5F88020DAF8001021F485
:103BB00040711143CAF800109EE70198002101F0FE
:103BC000CBF800B106462879C04300F0020020433C
:103BD00005D10198012101F0BFF800B1064628790E
:103BE000C04300F00400204305D10198022101F0F8
:103BF000B3F800B106462879C04300F0080020431E
:103C000005D10098002101F037F900B10646287966
:103C1000C04300F01000204305D10098012101F0BD
:103C20002BF900B106462879C04300F02000044378
:103C300004D10098022101F01FF900B916B101204A
:103C4000BDE8FE8F0020FBE74C4402582DE9F05FF1
:103C500004000F467ED0DFF83882D8F8000000F06C
:103C60000F00B8420CD2D8F8001021F00F013943F0
:103C7000C8F80010D8F8000000F00F00B84269D171
:103C80002078844D40070AD52069296801F0700129
:103C9000884204D9296821F0700101432960207805
:103CA0007C4E361D00070AD56069316801F070014D
:103CB000884204D9316821F07001014331602078D5
:103CC000C0060AD5A069316801F4E061884204D9D0
:103CD000316821F4E061014331602078DFF8B4B14C
:103CE00080060BF1080B0CD5E1695846DBF8002083
:103CF00002F07002914204D9026822F070020A4375
:103D00000260207880070AD5E068296801F00F0179
:103D1000884204D9296821F00F01014329602078E5
:103D2000C0073ED05B49A2682868183920F470604B
:103D3000104328606068022818D0032819D0096849
:103D4000012819D0490700294ADADFF848A1AAF169
:103D5000080A00E044E0DAF8002022F007020243FB
:103D6000CAF80020FEF76AFE814612E0096889035E
:103D7000E9E709688901E6E7C905E4E7FEF75EFEC1
:103D8000A0EB090141F28830814202D90320BDE84D
:103D9000F09F6168DAF8000000F03800B0EBC10F66
:103DA000ECD1207880070AD5E068296801F00F017E
:103DB000884204D2296821F00F0101432960D8F814
:103DC0000010404601F00F01B9420BD9016821F003
:103DD0000F0139430160006800F00F00B84201D0C4
:103DE0000120D4E7207840070AD52069296801F02E
:103DF0007001884204D2296821F0700101432960D2
:103E0000207800070AD56069316801F070018842A6
:103E100004D2316821F07001014331602078C0067E
:103E20000AD5A069316801F4E061884204D23168A2
:103E300021F4E06101433160207880060CD5E1690E
:103E40005846DBF8002002F07002914204D202686A
:103E500022F070020A43026000F06CF80E492A68F2
:103E60002B68C2F3032203F00F038A5CC95C02F0E3
:103E70001F0201F01F01D040084A20FA01F1116031
:103E80000749086007480068BDE8F05FFEF712BE0A
:103E90000020005218440258367B000820000024FD
:103EA0001C0000241400002430B500F043F80B4A35
:103EB0000B490C4B15681468C5F3032204F00F047A
:103EC0008A5C095D02F01F0201F01F01D040064A22
:103ED00020FA01F119601060084630BD18440258FC
:103EE000367B0008200000241C00002400B5FFF7EA
:103EF000DBFF05490968054AC1F30211515C01F075
:103F00001F01C84000BD00001C440258367B000859
:103F100000B5FFF7C9FF05490968054AC1F3022149
:103F2000515C01F01F01C84000BD00001C44025854
:103F3000367B0008454970B545480968434B103B3E
:103F400011F0380208D00111082A03D0102A0BD032
:103F5000182A0BD0084670BD19688906FBD5196868
:103F6000C1F3C101C84070BD3A4870BD3749374DF3
:103F700018310C1D24350A68096826682D6802F07E
:103F8000030406F00102C1F30511C5F3CC0515FBCE
:103F900002F200EE102AB8EE400AE9B32F4ADFED34
:103FA0002E0AB7EE001A6CB1DFED2D1A012C01D0EC
:103FB000022C43D002EE101A1068F8EE422A81EE6D
:103FC000A22A1EE01C68A40611D51B6801EE901AF7
:103FD0001168C3F3C103F8EE612AD84001EE900ADC
:103FE000C1F30800F8EE611A81EEA22A0BE001EE9F
:103FF000901ADFED1C2A00BFF8EE611A106882EEFD
:10400000A12AC0F3080001EE900AF8EE611A40EE12
:10401000201A31EE810A00E015E022EE000A106855
:10402000C0F34620401C00EE900AF8EE600A80EED5
:10403000201ABCEEC10A10EE100A70BD01EE901AF3
:10404000DFED092AD8E7002070BD000010440258B7
:104050000090D00340787D010000003930440258C0
:104060000024744A0024744C20BCBE4B2DE9F05F40
:1040700004007DD0FF4F2078FE4D1837DFF8F49311
:10408000103DC00748D0D9F80000396800F038006A
:10409000102815D0182803D101F0030002280FD0F2
:1040A0006068B0F5803F12D010B1B0F5A02F18D0E5
:1040B000286820F480302860286820F4802009E0F7
:1040C0002868800328D560680028D2D024E02868BA
:1040D00040F480302860606888B1FEF7AFFC064687
:1040E00009E0286840F480202860F0E7FEF7A6FC8D
:1040F000801B64286FD828688003F7D50CE0FEF792
:104100009DFC064605E000BFFEF798FC801B642876
:10411000F0D828688003F7D4207841F20308D54E00
:104120000C3E800769D5D9F80000396810F03800D6
:104130000ED0182801D188070AD0E06890B329680A
:1041400021F0190101432960FEF778FC824631E035
:104150002868400702D5E06800288AD0E16828680E
:1041600020F0190008432860FEF768FC824607E04B
:10417000DFE000BFFEF762FCA0EB0A000228B9D81E
:1041800028684007F6D500BFFEF752FC40451BD813
:104190002069402812D0316821F47C3141EA003096
:1041A00030602AE018E000BFFEF748FCA0EB0A00F0
:1041B00002289FD828684007F6D5E5E7306820F444
:1041C0007C3040F40030EBE7207C316821F0FE4188
:1041D00041EA0060E4E70DE1286820F00100286072
:1041E000FEF72CFC824605E0FEF728FCA0EB0A0057
:1041F00002288DD828684007F6D42078C0065DD5FF
:10420000D9F80000DFF86CB2396800F03800ABF183
:10421000040B082810D0182803D101F0030001284E
:104220000AD0E0690028286838D040F08000286073
:10423000FEF704FC824623E02868C00523D5E06928
:10424000802876D11FE0206A202821D0316821F013
:10425000F84141EA8060306030E000BF94F82010FF
:10426000DBF8002022F07C5242EA0161CBF800101A
:1042700024E000BFFEF7E2FBA0EB0A00022898D87A
:104280002868C005F6D5FEF7D3FB4045E6D8DAE747
:10429000306820F0F84040F08040DCE720F08000FB
:1042A0002860FEF7CBFB064605E000BFFEF7C6FB25
:1042B000801B02289DD82868C005F7D42078000705
:1042C00029D56C486169643000298046016811D0A5
:1042D00041F001010160FEF7B1FB064605E000BFB9
:1042E000FEF7ACFB801B0228C9D8D8F80000800775
:1042F000F6D510E021F001010160FEF79FFB0646B4
:1043000005E000BFFEF79AFB801B022872D8D8F8A0
:1043100000008007F6D42078800623D5A069002805
:10432000286810D040F480502860FEF787FB0646CE
:1043300005E036E1FEF782FB801B02285AD8286888
:104340008004F7D50EE020F480502860FEF776FB5D
:10435000064604E0FEF772FB801B02284AD8286854
:104360008004F7D4207840074FD5DFF80C81D8F8C7
:10437000001041F48071C8F80010FEF75FFB06469C
:1043800005E000BFFEF75AFB801B642832D8D8F83E
:104390000000C005F6D5374EA068603601280AD067
:1043A00008B1052813D0306820F001003060306873
:1043B00020F0040002E0306840F001003060A068A6
:1043C00041F2883A90B1FEF739FB80460AE0306846
:1043D00040F004003060EEE7FEF730FBA0EB080190
:1043E000514507D830688007F6D50EE0FEF726FB6A
:1043F000804607E084E000BFFEF720FBA0EB080149
:1044000051457DD830688007F6D4606AB0B3DFF8D4
:104410006480D9F8001008F120084FF6F87B08F105
:104420000409C1F3C2010329A8F1040A69D00228D2
:10443000286820F08070286003D0FEF7FFFA044659
:1044400084E0FEF7FBFA064605E000BFFEF7F6FA49
:10445000801B022877D828688001F7D4E26A40F2EE
:10446000F331386854F8283F884340EA0210184373
:10447000386004E01044025800480258B5E0217B3F
:10448000434622894FF4FE0C208A4FF0FE47490232
:10449000267D521E401EA1F50071C2F308088AB2A3
:1044A000761E0CEA004042EA08020243504607EA40
:1044B00006610A431A60DAF8002022F00102CAF805
:1044C0000020D9F80020266A22EA0B0242EAC6023E
:1044D000C9F80020DAF80010A26921F00C0111439C
:1044E000CAF800100168E26921F00201114301607D
:1044F000016841F480310160016841F4003101E05C
:1045000021E027E00160016841F480210160016839
:1045100041F001010160286840F080702860FEF7DA
:104520008DFA044605E000BFFEF788FA001B02285A
:1045300009D828688001F7D557E000BFFEF77EFA5A
:10454000001B022802D90320BDE8F09F28688001E3
:10455000F4D44AE039680128D8F8000021D0A26AD2
:1045600001F0030393421CD1E26AC1F305118A42B0
:1045700017D1216BC0F30802491E8A4211D1616B29
:10458000C0F34622491E91420BD1A16BC0F30642F3
:10459000491E914205D1E16BC0F30660491E81427C
:1045A00001D00120D0E7A16C4E46D9F80000C0F33D
:1045B000CC00814219D0DAF80000554620F0010005
:1045C000CAF80000FEF73AFA4FEA0007FEF736FA9B
:1045D000B842FBD0A26C306820EA0B0040EAC2006F
:1045E0003060286840F0010028600020ACE7401EE1
:1045F000B0F1807F10B501D3012010BD4FF0E02451
:1046000060610F21601701F08DF90020A061072182
:10461000216110BDF0B590F83C20012A3BD01F4E1F
:10462000012480F83C40022280F83D2002681C4DA5
:104630005368B242D2F808C001D0AA4203D14F68F1
:1046400023F470033B430F6823F070031F4357604C
:104650000268B24213D0B2F1804F10D0114B9A428F
:104660000DD0114B9A420AD0104B9A4207D0AA4261
:1046700005D00F4B9A4202D00E4B9A4204D1896862
:104680002CF0800319439160002180F83D4080F8B0
:104690003C100846F0BD0220F0BD000000000140C3
:1046A000000401400004004000080040000C0040ED
:1046B000001800400040014010B5040003D094F8F9
:1046C0003D0010B107E0012010BD002084F83C003F
:1046D000204600F023F8022084F83D002068211DC8
:1046E00000F03AFD012084F8480084F83E0084F888
:1046F0003F0084F8400084F8410084F8420084F8C8
:10470000430084F8440084F8450084F8460084F8A7
:10471000470084F83D00002010BD000008B5006887
:104720000649884208D10648016841F0020101604B
:10473000006800F00200009008BD00000004004086
:10474000E844025890F83D10012901D0012070473B
:10475000144B0222016880F83D20994214D0B1F137
:10476000804F11D0104881420ED0104881420BD0AA
:104770000F48814208D00F48814205D00E4881423F
:1047800002D00E48814207D188680D4A10400628A1
:1047900006D0B0F5803F03D0086840F00100086003
:1047A0000020704700000140000400400008004065
:1047B000000C00400004014000180040004001408F
:1047C0000700010070B5044690F83C000025012860
:1047D00014D03A4B012684F83C60022084F83D0056
:1047E00022689068184020F47F4090600868702824
:1047F0002FD010DC10F00F0F03D022E04FF002009A
:1048000070BD4FEA2012072A1BD2DFE802F0535393
:1048100053534B394100B0F1101F4BD009DCB0F5B8
:10482000805F0FD0B0F5005F1ED0B0F5801F08D1BB
:1048300040E0A0F5801120393CD010293AD0202941
:1048400038D0012584F83D60002084F83C002846DB
:1048500070BD4A682068D1E9021300F0DFFC2068CF
:10486000816841F0770109E04A682068D1E90213C4
:1048700000F0D4FC2068816841F480418160E1E768
:10488000CA684968206800F0DDFC2068502106E015
:10489000CA684968206800F0E6FC2068602100F0E2
:1048A000C7FCCFE7CA684968206800F0CBFC2068E5
:1048B0004021F4E7226801461046F0E788FFCEFF6A
:1048C00030B590F88410012918D0012280F8842096
:1048D0002421C0F888100022202401680B680D688C
:1048E00023F0005325F001050D60426601680B605E
:1048F000C0F8884080F88420104630BD022030BDCA
:1049000070B5044690F8840001281DD0012284F877
:1049100084202420C4F8880020680568026822F0FA
:10492000010202602068826822F060620A438260AD
:10493000204600F0ABFC2268202100201560C4F85E
:10494000881084F8840070BD022070BD70B50446E4
:1049500090F8840001281DD0012284F884202420AE
:10496000C4F8880020680568026822F0010202602D
:104970002068826822F060420A438260204600F08C
:1049800085FC2268202100201560C4F8881084F876
:10499000840070BD022070BD10B5040003D0D4F8AF
:1049A000880010B107E0012010BD002084F88400C9
:1049B000204600F027F82420C4F888002068016809
:1049C00021F001010160204600F066FD0128EBD0D6
:1049D000A06A10B1204600F07BFC2068416821F4F9
:1049E000904141602068816821F02A01816020683F
:1049F000016841F0010101602046BDE8104000F06F
:104A0000CBBC000010B5B6B00446142130A8FBF7AB
:104A1000BAFCC0216846FBF7B6FC194920688842F9
:104A20002BD100201F9001210446CDE900106846DB
:104A3000FEF736FC08B1FCF760FA1248016841F055
:104A400010010160006800F0100035900D4810382A
:104A5000016841F001010160006830AB022100F003
:104A6000010035904FF4C060072283E81300064828
:104A700030A9CDE93342FDF7C5FE36B010BD0000C8
:104A800000100140F0440258000002582DE9F8439C
:104A90000446D0F88800984616460D46202802D0D5
:104AA0000220BDE8F883A5B19EB10021C4F89010A2
:104AB0002120C4F888001834FDF7C0FF814654F85F
:104AC000100CA687E6872027183CB0F5805F02D03F
:104AD00003E00120E5E7206910B12E46002510E033
:104AE00000260EE08021204600F0ACFEC0B9DEB109
:104AF00016F8010B21688862B4F85600401EA4F82D
:104B00005600B4F856004B464FF00002CDF8008036
:104B10000028E7D14FF04001204600F093FE48B155
:104B2000C4F888700320BCE735F8020B2168C0F395
:104B30000800E0E7C4F888700020B2E7FEE780686C
:104B4000C0F3C00070478068C0F380007047806881
:104B5000C0F380007047C06810F4406F01D000209F
:104B600070470120704710B5042404EAD15407238C
:104B7000C1F3045120448B408A4041699943114359
:104B8000416110BD70B58AB0002568461C210795AB
:104B900008950995FBF7F7FB204C042620490120D6
:104BA000820221604FF49061C4E903562575657552
:104BB000A0612577C4E90B056563C4E9091284F88F
:104BC0003850E0632046FCF76FFD08B1FCF795F91B
:104BD0000820C4E901501148FCF766FD08B1FCF754
:104BE0008CF90E4807A90795FCF78EF908B1FCF778
:104BF00084F90C48062140F2FF7203928DE82300ED
:104C000006486946CDE904658DF81950FCF710FA9D
:104C1000002801D0FCF771F90AB070BD2C00012406
:104C2000002002400000B84F094808B5016841F073
:104C30000101016000680022114600F001000090AF
:104C40000B20FDF773FFBDE808400B20FDF760BFA8
:104C5000D8440258094808B5016841F08001016054
:104C6000016801F080010091016841F001010160DB
:104C7000006800F00100009008BD0000E044025808
:104C800010B588B01748002440F249221449009416
:104C9000019402940394049405940694C0E90014CA
:104CA000C0E9024204618461FFF706FD08B1FCF728
:104CB00024F94FF4805000900A486946FFF782FDBE
:104CC00008B1FCF71AF920200490064804A90694BC
:104CD000FFF7A0FC002801D0FCF70FF908B010BDC9
:104CE00000040040080101241848002110B5164CAA
:104CF0000C224FF4E1330460C0E90131C160C0E926
:104D000004128161C161016241628162FFF744FE68
:104D100008B1FCF7F2F80D480021FFF717FE08B1C3
:104D2000FCF7EBF809480021FFF7EAFD08B1FCF7B2
:104D3000E4F80648FFF7C4FD002803D0BDE81040A2
:104D4000FCF7DBB810BD0000001001405401012445
:104D5000FEE7FEE7704700002DE9F047454D0446A9
:104D600089464FF0000A2868C04380070AD0414EA8
:104D7000283E306820F080603060FDF75FFE074617
:104D8000B04608E00120BDE8F08700BFFDF756FE01
:104D9000C01B022867D8D8F800000001F6D42068AC
:104DA00029684FF4FE0721F47C313E0241EA0030CD
:104DB0002860207AA389B4F804C040022D4D2D4903
:104DC0005B1E227CACF1010C1035091DA0F50070B2
:104DD00080B2521ECCF3080C07EA034340EA0C00F1
:104DE000184306EA0262104328600868626920F0EE
:104DF000C000104308600A68A06922F02002024344
:104E00000A60281D0A6822F010020A6002684FF644
:104E1000F873E4699A4342EAC40202600868B9F18F
:104E2000000F40F010020A6011D00868B9F1010FBC
:104E300011D040F400100860D8F80000444640F05B
:104E40008060C8F80000FDF7F9FD05460DE0086830
:104E500040F40020EFE740F48010ECE7FDF7EEFDB2
:104E6000401B022801D903208DE720680001F5D5F9
:104E7000504688E7284402582DE9F047454D04463E
:104E800089464FF0000A2868C04380070AD0414E87
:104E9000283E306820F080503060FDF7CFFD074697
:104EA000B04608E00120BDE8F08700BFFDF7C6FD71
:104EB000C01B022867D8D8F800008000F6D42088EC
:104EC00029684FF4FE0721F07C713E0241EA005050
:104ED0002860207AA389B4F804C040022D4D2D49E2
:104EE0005B1E227CACF1010C1835091DA0F5007089
:104EF00080B2521ECCF3080C07EA034340EA0C00D0
:104F0000184306EA0262104328600868626920F4C8
:104F10004060104308600A68A06922F400720243EE
:104F20000A60281D0A6822F480720A6002684FF63F
:104F3000F873E4699A4342EAC40202600868B9F16E
:104F4000000F40F480720A6011D00868B9F1010FB7
:104F500011D040F080700860D8F80000444640F05E
:104F60008050C8F80000FDF769FD05460DE00868AF
:104F700040F48000EFE740F40000ECE7FDF75EFD51
:104F8000401B022801D903208DE720688000F5D559
:104F9000504688E7284402587047FDF755BD000089
:104FA00070B59CB04C216846FBF7EDF9202113A8A1
:104FB000FBF7E9F90220FDF7EBFD2D4900242D4810
:104FC0000A6822F001020A600A68026842F440425C
:104FD0000260026802F440421B9202689204FCD50F
:104FE000254A136843F002031360126802F00202BC
:104FF0001B92026842F44042026002680A6842F072
:1050000001020A60096801F001011B91016889042D
:10501000FCD50DF1280C022009900521C0228CE856
:105020000700C3030F9008250D9001260E90CDE9CF
:105030001054CDE9006368461294FFF717F808B1E1
:1050400072B6FEE740201A903F210301CDE91650C9
:105050000322CDE9180313AB13A883E8160004213B
:10506000FEF7F4FD002801D072B6FEE71CB070BD5B
:105070002C04005818480258F44402582C48F0B543
:105080002C4A016841F470010160106800F00F00C3
:10509000072804D2106820F00F00C01D10602649B8
:1050A0000020254C10340B68244D43F001030B60A5
:1050B00020600B682B400B60136803F00F03072B75
:1050C00004D9136823F00F03DB1D13601A4C1C4A2C
:1050D00018341C4B261D371D2060174C1A4D2834E0
:1050E0003060261D3860371D23603B1D35601C1D58
:1050F0003A60251D2E1D1860331D22602860326025
:1051000018600A680C4B114C22F4802260330A604C
:10511000186020686FF30F00B0F1005F03D20C49F4
:105120000120C1F8080143F2D2000A490860F0BD2D
:1051300088ED00E000200052004402587FEDF6EABE
:1051400080020101000202020000FF010010005C69
:1051500000800051004000522DE9F047274B4FF0EE
:10516000804A274D02689842264E274F274C09D087
:10517000504507D0A84205D0B04203D0B84201D074
:10518000A04205D1D1F804C022F070024CEA02021C
:10519000DFF87CC0DFF87C809842DFF87C900FD08D
:1051A00050450DD0A8420BD0B04209D0B84207D02C
:1051B000A04205D0604503D0404501D0484503D109
:1051C000CD6822F440722A434D6922F080022A43BE
:1051D000026098428A68C2620A68826207D0A0426E
:1051E00005D0604503D0404501D0484501D109694B
:1051F000016301214161BDE8F0870000000001402A
:105200000004004000080040000C00400004014081
:1052100000400140004401400048014042EA0322AE
:1052200083680A4323F47F410A4382607047000089
:10523000034B82681A400A4342F0070181607047BD
:105240008FFFCFFF10B5036A046A23F00A0324F02E
:105250000104046284690B4324F0F00141EA021165
:105260008161036210BD10B5036A23F0100303626D
:105270008369046A23F4704324F0A00443EA0232F1
:10528000826144EA0111016210BD000030B5416E37
:10529000B9B101680D4B03F108048A688968C2F34B
:1052A0004262490F5D5C615C2D01B5FBF1F1A0F834
:1052B0006A10995CA25C0901B1FBF2F1A0F86810D8
:1052C00030BD0121A0F86A10F8E70000267B000835
:1052D00090F82810C90706D00168C36A4A6822F40A
:1052E00000321A434A6090F82810890706D50168F1
:1052F000036B4A6822F480321A434A6090F82810FF
:10530000490706D50168436B4A6822F480221A4394
:105310004A6090F82810090706D50168836B4A682F
:1053200022F400421A434A6090F82810C90606D5B4
:105330000168C36B8A6822F480521A438A6090F82D
:105340002810890606D50168036C8A6822F4005289
:105350001A438A6090F82810490611D50168436CF9
:105360004A6822F480121A434A60416CB1F5801FEA
:1053700006D10168836C4A6822F4C0021A434A606D
:1053800090F82810090606D50168C26C486820F418
:1053900000201043486070472DE9F843002504467B
:1053A000C0F89050FDF74AFB8046206820266FF039
:1053B0007E470068000713D500224346310420468B
:1053C000009700F03FFA58B1216851E8000F20F033
:1053D000800041E80002002AF6D1C4F8886021E08C
:1053E00020680068400722D5002243464FF4800120
:1053F0002046009700F026FAC8B1206850E8001F48
:1054000021F4907140E80012002AF6D1206808309B
:1054100050E8001F21F0010140E80012002AF5D1F8
:10542000C4F88C60032084F88450BDE8F883C4F885
:105430008860C4F88C60E5662567002084F8845095
:10544000F3E7000010B5026852E8001F21F49071E4
:1054500042E80013002BF6D10E4B0268083252E8E6
:10546000001F194042E80014002CF6D1C16E01293A
:1054700008D1026852E8001F21F0100142E8001331
:10548000002BF6D100212022C0F88C20C166416794
:1054900010BD0000FEFFFFEF2DE9F04304468068D9
:1054A000D84E87B0D84B2168D4E90427D4F81CC063
:1054B00010430A68002547EA0C073843324002438C
:1054C0000A602068E268416821F44051114341605C
:1054D0002268A1699A4201D0206A01439768DFF8E7
:1054E0002CC3CB4ECB4807EA0C070F4397602168CB
:1054F000676ACA6A22F00F023A43CA622268B2425D
:105500000ED1006800F03800182873D047DCB8B31B
:10551000082879D010286FD178E028287ED17BE048
:10552000BD498A4209D1006800F00700062875D2FB
:10553000DFE800F0546A6C6E7072B8498A4209D193
:10554000006800F00700062868D2DFE800F0475D39
:105550005F616365B2498A4209D1006800F00700C3
:1055600006285BD2DFE800F03A5052545658AD4955
:105570008A420BD1006800F0070006284ED200E0F6
:1055800010E0DFE800F02B4143454749A6498A4235
:105590000AD1006800F03800182839D0B7DD20287B
:1055A000BBD13CE001203AE0A0498A4209D1006821
:1055B00000F00700062831D2DFE800F01026282A84
:1055C0002C2E9B498A420BD1006800F00700062868
:1055D00024D2DFE800F003191B1D1F2100201EE06C
:1055E0009A421BD18B48001D006800F00700062876
:1055F00014D202E00CE007E010E0DFE800F0030561
:1056000007090B0D02200AE0042008E0082006E04C
:10561000102004E0202002E0402000E080208549A6
:10562000DFF814829A42854A4FF400434FEA21176B
:105630004FF000064ED110281AD006DC022809D0FF
:1056400004280BD008287CD10DE020283ED040282B
:1056500077D13DE0FDF7C6FA014610E06846FDF758
:1056600077FB01990BE003A8FDF714FC049906E011
:105670001068800605D51068C0F3C100C14000293C
:1056800070D0606A676838F8102007EB4703B1FBF9
:10569000F2F0834255D8B0EB073F52D800230846BA
:1056A0001946FAF717FE02467808130E120243EA6B
:1056B000012110183A4671410023FAF70BFE604AA7
:1056C000A0F5407191423CD821688FE03946D8E777
:1056D0001946D6E7D4F81CC04FF6EF799C4546D161
:1056E000082819D005DC58B101280CD0042875D140
:1056F0000DE0102815D0202835D040286ED134E098
:10570000FEF7F4FB01E0FEF703FC014610E06846FB
:10571000FDF71EFB01990BE003A8FDF7BBFB049905
:1057200006E01068800604D51068C0F3C100C140CF
:10573000C1B1636A606838F81330B1FBF3F1490016
:1057400000E04BE001EB5001B1FBF0F0A0F11001E3
:10575000494543D84FF6F0732168C0F34202184020
:10576000104343E043E03946E3E71946E1E7082800
:1057700019D005DC58B101280CD004282ED10DE039
:10578000102815D020282BD0402827D12AE0FEF75A
:10579000ADFB01E0FEF7BCFB014610E06846FDF7FB
:1057A000D7FA01990BE003A8FDF774FB049906E012
:1057B0001068800604D51068C0F3C100C140B1B1C3
:1057C000636A606838F81330B1FBF3F101EB500104
:1057D000B1FBF0F0A0F11001494505D9012506E023
:1057E0003946EDE71946EBE7216880B2C860012031
:1057F000A4F86A00A4F8680028466667A66707B0A0
:10580000BDE8F083F369FFCF000C0058FFF4FF11EF
:105810000010014054440258004400400048004039
:10582000004C00400050004000140140007800404F
:10583000007C00400090D0030E7B0008004402581A
:10584000FFFC0F002DE9F047994617460E46044627
:10585000089D4FF000082FE0681C2DD0FDF7EEF8F2
:10586000A0EB0900A84214D89DB12068016849073F
:1058700022D5C169C94309070DD408250562204610
:10588000FFF7E0FDC4F89050012084F88480BDE863
:10589000F0870320FBE7C069C04300050CD42168F2
:1058A0004FF4006008622046FFF7CCFD2021C4F8C9
:1058B000901084F88480ECE72068C06936EA000024
:1058C00004D00020B842C7D00020E0E70120F9E76B
:1058D000FEE700000FB4054B10B503A9044A029877
:1058E00000F02AFE10BC5DF814FB0000817800086F
:1058F0002400002403B401984100009850EAC1201C
:1059000018BF04204A0D18BF40F0010040F2FF729A
:10591000B2EB515F08BF40F00200012808BF05202C
:1059200002B07047090700284FEA116104DB00F15B
:10593000E02080F80014704700F00F0000F1E02034
:1059400080F8141D704700002DE9F04D2DED040B7B
:105950002DED0A8B9AB0DDE92550279CDDF890A04B
:1059600025F0004624F00048BAF1000F14BF0121D1
:10597000002101EB4502F84953184A1093422AD3FB
:10598000002814BF0123002303EB44030B44F34915
:105990008B4220D358EA00019FEDF19B72D0DFF8D3
:1059A000C8B35D4503D1BAF1000F05D184E0BAF167
:1059B000000F08BF002100D0012101EB450111F5C6
:1059C000001F08D8002814BF0121002101EB440169
:1059D00011F5001F0BD99DED261B9DED240B1AB070
:1059E000BDEC0A8B04B0BDE8F04D00F0A5BC00276B
:1059F000002DBCBFDD49884521DADD498845A8BFB7
:105A000002271CDAC3451ADCDA4901EB28511429B4
:105A100008DDC1F1340220FA02F101FA02F28242F9
:105A20000DD108E058B9C1F1140228FA02F101FAC7
:105A300002F2424503D101F00101C1F1020756EA29
:105A40000A0120D1002C1EDA002D18BF022F01D030
:105A5000012F0AD0022000F0A7FC1AB0BDEC0A8B7F
:105A600004B0BDE8F04D00F057BC022000F09CFCF3
:105A700000F052FCB1EE400B1AB0BDEC0A8B04B042
:105A8000BDE8F08D18E09FEDBCAB9FEDBD8B00280D
:105A90007DD1B64880451CD105F1804010F58010BD
:105AA00008BFBAF1000F07D0B34508DC002CA8BF2F
:105AB0009DED260BE0DA07E0B0EE490BDCE7002CA9
:105AC000B8BF9DED260BD5DBAF48784490ED000BB9
:105AD000D2E7D84548D1002C43DA2EB186423AD1DC
